:100000000C94FE000C941B010C941B010C941B011E
:100010000C941B010C941B010C941B010C941B01F0
:100020000C941B010C941B010C941B010C941B01E0
:100030000C94D2040C941B010C941B010C941B0116
:100040000C941B010C941B010C941B010C941B01C0
:100050000C941B010C941B010C941B010C941B01B0
:100060000C941B010C941B010C941B010C941B01A0
:100070000C941B010C941B010C941B010C941B0190
:100080000C941B010C941B010C94F8040C941B01A0
:100090000C941B010C941B010C941B010C941B0170
:1000A0000C941B010C941B010C941B010C941B0160
:1000B0000C941B010C941B010C94AC040C941B01BC
:1000C0000C941B010C941B010C941B010C941B0140
:1000D0000C941B010C941B010C941B010C941B0130
:1000E0000C941B010C941B010C941B010C941B0120
:1000F0000C941B010C941B010C941B010C941B0110
:100100000C941B010C941B010C941B010C941B01FF
:100110000C941B010C941B010C941B010C941B01EF
:100120000C941B010C941B010C941B010C941B01DF
:100130000C941B010C941B010C941B010C941B01CF
:100140000C941B010C941B010C941B010C941B01BF
:100150000C941B010C941B010C941B010C941B01AF
:100160000C941B010C941B010C941B010C941B019F
:100170000C941B010C941B010C941B010C941B018F
:100180000C941B010C941B010C941B010C941B017F
:100190000C941B010C941B010C941B010C941B016F
:1001A0000C941B010C941B010C941B010C941B015F
:1001B0000C941B010C941B010C941B010C941B014F
:1001C0000C941B010C941B010C941B010C941B013F
:1001D0000C941B010C941B010C941B010C941B012F
:1001E0000C941B010C941B010C941B010C941B011F
:1001F0000C941B010C941B010C941B0111241FBEB9
:10020000CFEFCDBFDFE2DEBF10E2A0E0B0E2EAE375
:10021000F6E102C005900D92A030B107D9F726E2B1
:10022000A0E0B0E201C01D92AF34B207E1F70E9436
:1002300000040C941B0B0C940000EDE0F0E289E04C
:1002400094E21192119211921192E817F907C9F7ED
:100250000895CF93C82F90E00197FC01EE0FFF1F88
:10026000EE0FFF1FE35FFF4D40815181628173817B
:10027000452B462B472B29F4209101202F5F2093FB
:100280000120880F991F880F991FFC01E35FFF4D24
:1002900081E090E0A0E0B0E080839183A283B3830B
:1002A000C09300204091012063E170E080E090E085
:1002B0000E94600A4C2F64E170E080E090E00E94B0
:1002C000600ACF91089524E0829FC0011124FC01AF
:1002D000E75FFF4D81E04081518162817381452B51
:1002E000462B472B09F480E00895809109248093E0
:1002F0000A24833009F46FC028F4813051F0823031
:10030000C9F10895843009F490C08F3F09F4BDC04D
:1003100008950E940C030E9420030E946A020E941A
:100320007B020E948F020E94A8020E94BC020E94CF
:10033000D00241E060E170E080E090E00E94600A5D
:1003400084E08093092480910620882319F083E0BB
:100350008093092480910B20882319F082E08093F8
:10036000092480910520882309F4A8C08FEF809389
:10037000092408950E940C030E94E4020E943403A1
:100380000E9459030E9445030E9472030E948E033B
:100390000E94AA0342E060E170E080E090E00E94E9
:1003A000600A82E08093092480910B20882319F051
:1003B00084E08093092480910620882319F083E04B
:1003C0008093092480910520882309F477C08FEF5A
:1003D0008093092408950E940C030E94E4020E9465
:1003E00034030E947B020E9459030E9472030E9400
:1003F0008E030E94D00243E060E170E080E090E074
:100400000E94600A80910B2094E090930924882335
:1004100019F082E08093092480910520882309F453
:100420004DC08FEF8093092408950E94F8020E9426
:1004300020030E9434030E947B020E9459030E9401
:1004400072030E948E030E94AA0344E060E170E000
:1004500080E090E00E94600A84E08093092480910B
:100460000B20882319F082E08093092480910620D4
:10047000882319F083E08093092480910520882344
:10048000E9F08FEF8093092408950E94150B0E94D4
:10049000F8020E94E4020E946A020E947B020E940B
:1004A0008F020E94A8020E94BC020E94D0024FEF5D
:1004B00060E170E080E090E00E94600A0895E0E66C
:1004C000F6E0818187628183E0E2F6E081818460E9
:1004D000818308950E94780560E670E080E090E0F6
:1004E0000E94730A482F4F7760E670E080E090E04A
:1004F0000E94600A0895E0E2F6E0858184608583C9
:1005000060E670E080E090E00E94730A482F4F7B25
:1005100060E670E080E090E00E94600A0895E0E20A
:10052000F6E0868184608683E0E6F6E0868180627C
:10053000868360E670E080E090E00E94730A482FB6
:100540004F7D60E670E080E090E00E94600A0895D0
:10055000E0E6F6E086818160868360E670E080E018
:1005600090E00E94730A482F4F7E60E670E080E0C2
:1005700090E00E94600A0895E0E6F6E086818260DD
:10058000868360E670E080E090E00E94730A482F66
:10059000477F60E670E080E090E00E94600A089586
:1005A000E0E6F6E086818460868360E670E080E0C5
:1005B00090E00E94730A482F4B7F60E670E080E075
:1005C00090E00E94600A0895E0EEF7E08681826084
:1005D000868360E670E080E090E00E94730A482F16
:1005E0004D7F60E670E080E090E00E94600A089530
:1005F000E0EEF7E086818160868360E670E080E06F
:1006000090E00E94730A482F4E7F60E670E080E021
:1006100090E00E94600A0895E0EEF7E08581816035
:10062000858360E670E080E090E00E94730A482FC6
:10063000416060E670E080E090E00E94600A08950A
:10064000E0EEF7E085818260858360E670E080E01F
:1006500090E00E94730A482F426060E670E080E0FC
:1006600090E00E94600A08950E945D0560E670E0D7
:1006700080E090E00E94730A482F406860E670E0D6
:1006800080E090E00E94600A0895E0E2F6E0868152
:100690008460868360E670E080E090E00E94730AE8
:1006A000482F406460E670E080E090E00E94600ABD
:1006B0000895E0E2F6E0858184608583E0E6F6E077
:1006C00085818062858360E670E080E090E00E9432
:1006D000730A482F406260E670E080E090E00E947C
:1006E000600A089583E10E946301882319F00E9443
:1006F000A8020895E0E6F6E085818160858360E6E2
:1007000070E080E090E00E94730A482F406160E64C
:1007100070E080E090E00E94600A089584E10E9409
:100720006301882319F00E94BC020895E0E6F6E018
:1007300085818260858360E670E080E090E00E94C1
:10074000730A482F486060E670E080E090E00E9405
:10075000600A089583E10E946301882319F00E94D2
:10076000D0020895E0E6F6E085818460858360E646
:1007700070E080E090E00E94730A482F446060E6D9
:1007800070E080E090E00E94600A0895EF92FF928E
:100790001F93CF93DF930F2EFEE0EF2EF4E2FF2E98
:1007A000F02DF701D48114896D2F70E080E090E086
:1007B0000E94800AF70184876D2F70E06F5F7F4F82
:1007C000072E000C880B990B0E94800AF701858781
:1007D000112381F0C0E06D2F6C0FCF5FEC2FF0E0A4
:1007E000E25FFB4D448170E080E090E00E94600A8F
:1007F0001C13F1CFDF91CF911F91FF90EF900895DF
:1008000088ED84BF82E080935000E0E5F0E08181D4
:1008100081FFFDCF88ED84BFC1E0C0934000E0EED2
:10082000F7E08181836081838581836085832FEFF9
:1008300083EC99E0215080409040E1F700C0000037
:100840008681836086832FEF83EC99E0215080407E
:100850009040E1F700C000008581836085832FEF21
:1008600083EC99E0215080409040E1F700C0000007
:100870008681836086832FEF83EC99E0215080404E
:100880009040E1F700C00000E0E2F6E083E1808BF9
:10089000C28783E0818746EC53E060E874E08EE035
:1008A00094E20E946F0940E460E68EE094E20E94C8
:1008B0007A09E0EAF0E0828184608283828181604B
:1008C000828378940E9496050E945F020E94E00A4B
:1008D0000E941D010E940C0B0E941C050E94030B2C
:1008E0000E945D05C09309240E949F052FEF83EDB0
:1008F00090E3215080409040E1F700C000000E944A
:1009000026070E94C2070E944A0860E270E080E069
:1009100090E00E94800AC82F6AE270E080E090E0D8
:100920000E94800AC89FC0011124809302209093E6
:1009300003200E942105A8950E9475014091042082
:100940004F5F4093042062E170E080E090E00E94FD
:10095000600A0E949C0AD3CF1F920F920FB60F928B
:1009600011242F933F934F935F936F937F938F93B4
:100970009F93AF93BF93EF93FF938CE294E20E9417
:100980005609FF91EF91BF91AF919F918F917F9108
:100990006F915F914F913F912F910F900FBE0F90EC
:1009A0001F9018951F920F920FB60F9211242F933C
:1009B0003F934F935F936F937F938F939F93AF93E7
:1009C000BF93EF93FF938EE094E20E94310AFF9170
:1009D000EF91BF91AF919F918F917F916F915F91B7
:1009E0004F913F912F910F900FBE0F901F90189530
:1009F0001F920F920FB60F9211242F933F934F9394
:100A00005F936F937F938F939F93AF93BF93EF9376
:100A1000FF930E94150BFF91EF91BF91AF919F91B2
:100A20008F917F916F915F914F913F912F910F9097
:100A30000FBE0F901F9018951092272410922A2411
:100A40000895CF93DF93EC018091272490E03091BB
:100A50002A2441E08C179D0708F040E021E0311185
:100A600020E0242359F421E0C817D90708F020E03A
:100A700081E0313009F080E0822369F081E00E945A
:100A80008E0580910B2490E080933E0890933F0860
:100A900010922A240DC081E00E94860580910B24CB
:100AA00090E080933E0890933F0881E080932A2451
:100AB000C0932724DF91CF910895E0E4F6E081818F
:100AC00088608183E0E0F8E08081807F81608083BE
:100AD00081818877836881838CEF90E086A397A3D8
:100AE00080EB80930B2480EB90E086AF97AF089566
:100AF000E0E0F8E08081807F80831182109280089E
:100B0000E0E4F6E0108280E1838B089590910B245D
:100B1000913118F0981B90930B24089590910B2419
:100B2000903F18F4890F80930B2408952BE940E43B
:100B300060EA74E08CE294E20E9490080895AF921B
:100B4000BF92CF92DF92EF92FF920F93CF93DF93FA
:100B5000CDB7DEB76097CDBFDEBF80E4898381E487
:100B60008A8383E48B8382E48C8385E08D8398E0A1
:100B70009E831F82888780E189871A8696E09B87FB
:100B80008C871D8687E08E878AE08F87188A00E031
:100B900023E0AE01485F5F4F60E48CE294E20E9484
:100BA000A108ECE2F4E287898111FDCF00E023E0A7
:100BB000AE01455F5F4F60E48CE294E20E94A108C1
:100BC000ECE2F4E287898111FDCF00E023E0AE0181
:100BD000425F5F4F60E48CE294E20E94A108ECE285
:100BE000F4E287898111FDCF6E0182E0C80ED11C2D
:100BF0005E01E5E0AE0EB11C0F2EFCE2EF2EF4E23A
:100C0000FF2EF02DF60161916F0100E023E0AE01AF
:100C10004B5F5F4FC7010E94A108F70187898111CF
:100C2000FCCFCA14DB0471F76096CDBFDEBFDF9145
:100C3000CF910F91FF90EF90DF90CF90BF90AF904A
:100C40000895CF93DF93C42FD22F613409F450C09D
:100C500018F4603441F0F4C0623409F4B9C063346C
:100C600009F47EC0EDC0823029F08430F9F0813083
:100C7000D9F52BC04A3030F481E0809305208AE119
:100C80000E942901C63318F08AE10E9429014D2FE4
:100C90006EE270E080E090E00E94600A4C2F6FE20C
:100CA00070E080E090E00E94600ACDC0422F64E2D4
:100CB00070E080E090E00E94600A4C2F65E270E0F6
:100CC00080E090E00E94600ABEC0422F64E270E0C3
:100CD00080E090E00E94600A4C2F65E270E080E0C6
:100CE00090E00E94600AAFC080E00E942901ABC082
:100CF0008230A1F0843019F081112EC01EC0422F25
:100D000068E270E080E090E00E94600A4C2F69E2A7
:100D100070E080E090E00E94600A95C0422F62E39C
:100D200070E080E090E00E94600A4C2F63E370E086
:100D300080E090E00E94600A86C0422F68E270E086
:100D400080E090E00E94600A4C2F69E270E080E051
:100D500090E00E94600A77C080E00E94290173C081
:100D60008230A1F0843019F081112EC01EC0422FB4
:100D700066E270E080E090E00E94600A4C2F67E23B
:100D800070E080E090E00E94600A5DC0422F60E366
:100D900070E080E090E00E94600A4C2F61E370E018
:100DA00080E090E00E94600A4EC0422F66E270E050
:100DB00080E090E00E94600A4C2F67E270E080E0E3
:100DC00090E00E94600A3FC080E00E9429013BC081
:100DD0008230A1F0843019F081112EC01EC0422F44
:100DE00060E270E080E090E00E94600A4C2F61E2D7
:100DF00070E080E090E00E94600A25C0422F6AE225
:100E000070E080E090E00E94600A4C2F6BE270E09E
:100E100080E090E00E94600A16C0422F60E270E01D
:100E200080E090E00E94600A4C2F61E270E080E078
:100E300090E00E94600A07C080E00E94290103C080
:100E400080E00E942901DF91CF9108952F923F9277
:100E50004F925F926F927F928F929F92AF92BF92CA
:100E6000CF92DF92EF92FF920F931F93CF93DF9376
:100E7000CDB7DEB72697CDBFDEBF80E4898381E49E
:100E80008A8383E48B8382E48C8384E08D8382E095
:100E90008E83CE0101965C012E0195E0490E511C16
:100EA0003E01E7E06E0E711C0F2EFCE2EF2EF4E225
:100EB000FF2EF02D2E2C3F2C22C04601F501108173
:100EC00002E021E0A601612F822D932D0E94A1084E
:100ED000F70187898111FCCF24854385FFEFCF1A65
:100EE000DF0A612FF40180810E9421066C147D04C9
:100EF00021F7FFEFAF1ABF0A4A145B0429F06E0115
:100F000085E0C80ED11CD9CF2696CDBFDEBFDF91BC
:100F1000CF911F910F91FF90EF90DF90CF90BF90F6
:100F2000AF909F908F907F906F905F904F903F9089
:100F30002F900895CF93C62F803419F0823479F022
:100F40001CC06CE270E080E090E00E94600A4C2FD0
:100F50006DE270E080E090E00E94600A11C062E201
:100F600070E080E090E00E94600A4C2F63E270E045
:100F700080E090E00E94600A03C080E00E942901A6
:100F8000CF9108958F929F92AF92BF92CF92DF92AE
:100F9000EF92FF920F93CF93DF9300D0CDB7DEB7E0
:100FA00080E4898382E48A83CE0101966C014E013C
:100FB00093E0890E911C0F2EFCE2EF2EF4E2FF2E3F
:100FC000F02D560102E021E0A60165E2C7010E9472
:100FD000A108F70187898111FCCF44856385FFEF64
:100FE000CF1ADF0AF50180810E949A07C814D9043C
:100FF00041F70F900F90DF91CF910F91FF90EF90FD
:10100000DF90CF90BF90AF909F908F900895CF9337
:10101000DF93C62FD42F883419F08934D9F034C027
:10102000662324F488E10E94290105C06E3218F07D
:1010300086E10E9429014D2F6CE370E080E090E092
:101040000E94600A4C2F6DE370E080E090E00E9407
:10105000600A1DC0662324F489E10E94290105C0AD
:10106000623418F087E10E9429014D2F6EE370E091
:1010700080E090E00E94600A4C2F6FE370E080E017
:1010800090E00E94600A03C080E00E942901DF9185
:10109000CF910895AF92BF92CF92DF92EF92FF92DD
:1010A0000F931F93CF93DF9300D01F92CDB7DEB77E
:1010B00088E4898389E48A831B82CE0101966C01CE
:1010C0005E0193E0A90EB11C0F2EFCE2EF2EF4E2BC
:1010D000FF2EF02DF60111916F0102E021E0AE012B
:1010E0004D5F5F4F612FC7010E94A108F7018789FB
:1010F0008111FCCF44856385812F0E940708CA14A3
:10110000DB0441F72396CDBFDEBFDF91CF911F9166
:101110000F91FF90EF90DF90CF90BF90AF90089528
:10112000FC01608371834863DB0111964C93A081BD
:10113000B18115962C930190F081E02D81E084839C
:1011400008950F93CF93DF93FC01293098F5093070
:1011500098F58789811132C081E0878B108E660FE8
:101160006283222369F0A42FB52F40E050E08D91D7
:10117000EF01C40FD51F8B834F5F5F4F4217B8F34A
:10118000238B048B158A168A8389882341F08281F8
:101190008E7F0190F081E02D868381E012C08489EA
:1011A000882371F0828181600190F081E02D868337
:1011B00081E007C080E005C080E003C080E001C09E
:1011C00081E0DF91CF910F910895FC01A081B18161
:1011D00014969C91149792FF03C084E0808F02C004
:1011E00083E0808F986014969C93178A0895CF931C
:1011F000DF93FC0193892489A081B18114968C919D
:10120000149784FF07C083E013968C9385E0808F4A
:10121000178A1CC08589891758F48589EF01C80F82
:10122000D11D8B8117968C9385898F5F858B0EC01E
:101230008689821728F48281816016968C9306C075
:1012400083E013968C9381E0808F178ADF91CF9192
:101250000895FC018689883070F4A081B1811796C9
:101260008C919689DF01A90FB11D1B968C938689FD
:101270008F5F868B08C0A081B18183E013968C9329
:1012800082E0808F178A94898689891730F40190CB
:10129000F081E02D82E083830895A081B18187E011
:1012A00013968C9381E0808F178A0895DC01ED916D
:1012B000FC912481322F3C7019F00E94E5080895BA
:1012C00026FF03C00E94F708089522231CF40E9401
:1012D0002909089526E0FC01208F178A0895FC0152
:1012E0006083718342835383148A158A168A178A0E
:1012F000108E0895DC01ED91FC91119748634087B1
:10130000ED91FC91660F63870895FC01808D882321
:1013100051F0A081B18182E019968C9386E0878B91
:10132000168A108E089581E0868B178AA081B1817C
:1013300018968C9118978B7F18968C93148A158A1F
:101340000190F081E02D83E081870895FC01A08168
:10135000B18118968C9118978B7F18968C93A081E9
:10136000B1811A968C911A9780641A968C9381E0B9
:10137000878B168A0895CF93DF93FC01A081B181FA
:1013800018968C911897846018968C93848988306D
:1013900008F5EF010190F081E02D84859C89FE0124
:1013A000E90FF11D8483EA81FB8109958C898F5FA8
:1013B0008C8B888D882349F0E881F98182E08187D0
:1013C00086E08F8B1E8A188E0DC0E881F98183E03C
:1013D000818708C0A081B18186E019968C9382E054
:1013E000878B168ADF91CF910895FC018589882328
:1013F00071F0A081B1811A968C911A9784FF07C071
:1014000082E019968C9381E0878B168A08958589EE
:10141000883098F48589DF01A80FB11D1C968C9146
:10142000A081B1811C968C9385898F5F858B0190FB
:10143000F081E02D83E081870895A081B18182E071
:1014400019968C93878B168A0895DC01ED91FC9197
:10145000228521FF03C00E94F50908950E94BB095F
:101460000895FC01A081B1811A968C9182FF06C07B
:10147000148A158A84E0878B168A089583FF06C034
:10148000148A158A83E0878B168A0895282F207482
:10149000982F9174913421F4CF010E948509089509
:1014A000222321F0CF010E94A6090895882324F465
:1014B000CF010E94250A089585E0878B168A08953A
:1014C0006F3F71058105910509F040F4FB01E65B72
:1014D000FA4D408360E070E0CB01089561E070E078
:1014E00080E090E008956F3F71058105910509F056
:1014F00028F4FB01E65BFA4D8081089580E00895B1
:101500006F3F71058105910509F0A0F4E091072076
:10151000F091082045E051E0E49F9001E59F300DF7
:10152000F49F300D11242B5B3B4DF901E60FF71FA3
:101530008081089580E0089581E0409107205091D6
:1015400008206091092070910A20452B462B472BDB
:1015500009F080E0EAE4F5E290E025E031E0829FE6
:10156000D001839FB00D929FB00D1124AB5BBB4D9A
:101570002FE436E281918D93E217F307D9F7F894BF
:1015800081E090E0A0E0B0E0409107205091082079
:101590006091092070910A20452B462B472B19F0AA
:1015A00080E090E0DC018093072090930820A093D6
:1015B0000920B0930A20789460E070E0CB01089590
:1015C000EAE4F5E28FE496E21192E817F907E1F711
:1015D000EAE4F5E280E280831182128213821482AF
:1015E00015828BE480934E268AEE80934D2682E10D
:1015F00080934C2685E480934B268FEF80934A2678
:101600000E949C0A0895E0E8F0E080818D6180836B
:101610008081836080830895E0E4F6E081818068C2
:10162000818385818F6785830895E0E4F6E0858175
:0A163000806885830895F894FFCFC9
:00000001FF
