:100000000C94FE000C941B010C941B010C941B011E
:100010000C941B010C941B010C941B010C941B01F0
:100020000C941B010C941B010C941B010C941B01E0
:100030000C941B010C943D020C941B010C941B01AD
:100040000C941B010C941B010C941B010C941B01C0
:100050000C941B010C941B010C941B010C941B01B0
:100060000C941B010C941B010C941B010C941B01A0
:100070000C941B010C941B010C941B010C941B0190
:100080000C941B010C941B010C941B010C941B0180
:100090000C941B010C941B010C941B010C941B0170
:1000A0000C941B010C941B010C941B010C941B0160
:1000B0000C941B010C9463020C941B010C941B0107
:1000C0000C941B010C941B010C941B010C941B0140
:1000D0000C941B010C941B010C941B010C941B0130
:1000E0000C941B010C941B010C941B010C941B0120
:1000F0000C941B010C941B010C941B010C941B0110
:100100000C941B010C941B010C941B010C941B01FF
:100110000C941B010C941B010C941B010C941B01EF
:100120000C941B010C941B010C941B010C941B01DF
:100130000C941B010C941B010C941B010C941B01CF
:100140000C941B010C941B010C941B010C941B01BF
:100150000C941B010C941B010C941B010C941B01AF
:100160000C941B010C941B010C941B010C941B019F
:100170000C941B010C941B010C941B010C941B018F
:100180000C941B010C941B010C941B010C941B017F
:100190000C941B010C941B010C941B010C941B016F
:1001A0000C941B010C941B010C941B010C941B015F
:1001B0000C941B010C941B010C941B010C941B014F
:1001C0000C941B010C941B010C941B010C941B013F
:1001D0000C941B010C941B010C941B010C941B012F
:1001E0000C941B010C941B010C941B010C941B011F
:1001F0000C941B010C941B010C941B0111241FBEB9
:10020000CFEFCDBFDFE2DEBF10E2A0E0B0E2ECE86E
:10021000FCE002C005900D92A030B107D9F722E2B0
:10022000A0E0B0E201C01D92A438B207E1F70E943D
:10023000E8010C9444060C940000FC0184811482B3
:100240009AE29A95F1F700C084830895AAECB1E090
:1002500092E09C93E82FF0E084911C920895CF9354
:10026000DF9380E20E942601C0E0D2E08C8781E229
:100270000E9426018D878981897F89838A818F7871
:1002800080618A838C81887F81608C8388A1807E55
:10029000816088A388A5807E816088A788A9807EE8
:1002A000816088AB89A18778806289A389A58778D6
:1002B000886189A789A98778806189AB88818160F5
:1002C000888380E092E00E941D01DF91CF91089524
:1002D000E6E0F0E286E490E211921192119211921E
:1002E000E817F907C9F70895CF93C82F90E0019751
:1002F000FC01EE0FFF1FEE0FFF1FEA5FFF4D408175
:10030000518162817381452B462B472B29F4209123
:1003100001202F5F20930120880F991F880F991FBC
:10032000FC01EA5FFF4D81E090E0A0E0B0E0808357
:100330009183A283B383C09300204091012063E1A5
:1003400070E080E090E00E94A5054C2F64E170E031
:1003500080E090E00E94A505CF910895EF92FF9272
:100360001F93CF93DF930F2EFFE5EF2EF0E2FF2ECA
:10037000F02DF701D48114896D2F70E080E090E0BA
:100380000E94B805F70184876D2F70E06F5F7F4F83
:10039000072E000C880B990B0E94B805F701858782
:1003A000112381F0C0E06D2F6C0FCF5FEC2FF0E0D8
:1003B000E15AFF4D448170E080E090E00E94A50585
:1003C0001C13F1CFDF91CF911F91FF90EF90089513
:1003D000E0EEF7E083E081838581836085838FE4AD
:1003E00093EC0197F1F700C000008681836086835B
:1003F0008FE493EC0197F1F700C000000E94A60281
:100400004EEA51E060EA74E08FE590E20E94B404A5
:1004100040E460E68FE590E20E94BF04E0EAF0E08D
:1004200082818160828378940E9418060E9468010C
:100430000E948E020E943B060E9489020E942F01A8
:10044000C0EED7E08D8183608D839FE32DE083E054
:10045000915020408040E1F700C000000E945F03FF
:100460008E8183608E839FE32DE083E09150204056
:100470008040E1F700C00000E5CF1F920F920FB659
:100480000F9211242F933F934F935F936F937F931A
:100490008F939F93AF93BF93EF93FF9386E490E284
:1004A0000E949B04FF91EF91BF91AF919F918F911B
:1004B0007F916F915F914F913F912F910F900FBE60
:1004C0000F901F9018951F920F920FB60F92112444
:1004D0002F933F934F935F936F937F938F939F934C
:1004E000AF93BF93EF93FF938FE590E20E94760561
:1004F000FF91EF91BF91AF919F918F917F916F91FC
:100500005F914F913F912F910F900FBE0F901F90D1
:10051000189510927820109279200895E0E4F6E082
:10052000818188608183E0E0F8E08CEF90E086A331
:1005300097A381818877836881838081807F8160B0
:10054000808386E990E086AF97AF089525E040E488
:1005500060E874E086E490E20E94D5030895CF93AA
:10056000C42F613491F118F4603441F0A3C06234B7
:1005700009F479C0633409F44FC09CC0823019F08B
:10058000843081F01EC045E064E270E080E090E0DD
:100590000E94A5054C2F65E270E080E090E00E948B
:1005A000A5058BC0422F6EE270E080E090E00E94D3
:1005B000A5054C2F6FE270E080E090E00E94A50559
:1005C0007CC080E10E94740178C0823019F08430D0
:1005D00081F01EC0422F68E270E080E090E00E944F
:1005E000A5054C2F69E270E080E090E00E94A5052F
:1005F00064C0422F62E370E080E090E00E94A505B5
:100600004C2F63E370E080E090E00E94A50555C0A8
:1006100080E10E94740151C0823019F0843081F071
:100620001EC0422F66E270E080E090E00E94A505C7
:100630004C2F67E270E080E090E00E94A5053DC08D
:10064000422F60E370E080E090E00E94A5054C2F0F
:1006500061E370E080E090E00E94A5052EC080E19B
:100660000E9474012AC0823019F0843081F01EC0CB
:10067000422F60E270E080E090E00E94A5054C2FE0
:1006800061E270E080E090E00E94A50516C0422F74
:100690006AE270E080E090E00E94A5054C2F6BE2DA
:1006A00070E080E090E00E94A50507C080E10E9414
:1006B000740103C080E10E947401CF9108952F92CC
:1006C0003F924F925F926F927F928F929F92AF92E2
:1006D000BF92CF92DF92EF92FF920F931F93CF932F
:1006E000DF93CDB7DEB72697CDBFDEBF80E4898329
:1006F00081E48A8383E48B8382E48C8382E08D832C
:1007000084E08E83CE0101965C012E0195E0490EB6
:10071000511C3E01E7E06E0E711C0F2EF6E4EF2E29
:10072000F0E2FF2EF02D2E2C3F2C22C04601F501C9
:10073000108102E021E0A601612F822D932D0E94FD
:10074000E603F70187898111FCCF24854385FFEFFC
:10075000CF1ADF0A612FF40180810E94AF026C146E
:100760007D0421F7FFEFAF1ABF0A4A145B0429F09A
:100770006E0185E0C80ED11CD9CF0E94D405269603
:10078000CDBFDEBFDF91CF911F910F91FF90EF9012
:10079000DF90CF90BF90AF909F908F907F906F90A1
:1007A0005F904F903F902F900895FC01608371837C
:1007B0004863DB0111964C93A081B18115962C936F
:1007C0000190F081E02D81E0848308950F93CF9311
:1007D000DF93FC01293098F5093098F5878981115C
:1007E00032C081E0878B108E660F6283222369F00E
:1007F000A42FB52F40E050E08D91EF01C40FD51F1D
:100800008B834F5F5F4F4217B8F3238B048B158A9E
:10081000168A8389882341F082818E7F0190F0813E
:10082000E02D868381E012C08489882371F0828163
:1008300081600190F081E02D868381E007C080E037
:1008400005C080E003C080E001C081E0DF91CF916E
:100850000F910895FC01A081B18114969C91149789
:1008600092FF03C084E0808F02C083E0808F986095
:1008700014969C93178A0895CF93DF93FC01938974
:100880002489A081B18114968C91149784FF07C0AC
:1008900083E013968C9385E0808F178A1CC085892E
:1008A000891758F48589EF01C80FD11D8B811796E0
:1008B0008C9385898F5F858B0EC08689821728F47B
:1008C0008281816016968C9306C083E013968C9388
:1008D00081E0808F178ADF91CF910895FC0186898E
:1008E000883070F4A081B18117968C919689DF01D0
:1008F000A90FB11D1B968C9386898F5F868B08C0CC
:10090000A081B18183E013968C9382E0808F178A57
:1009100094898689891730F40190F081E02D82E076
:1009200083830895A081B18187E013968C9381E041
:10093000808F178A0895DC01ED91FC912481322F7C
:100940003C7019F00E942A04089526FF03C00E94FB
:100950003C04089522231CF40E946E04089526E0AE
:10096000FC01208F178A0895FC0160837183428304
:100970005383148A158A168A178A108E0895DC010B
:10098000ED91FC91119748634087ED91FC91660FC2
:1009900063870895FC01808D882351F0A081B18187
:1009A00082E019968C9386E0878B168A108E0895C4
:1009B00081E0868B178AA081B18118968C91189757
:1009C0008B7F18968C93148A158A0190F081E02D04
:1009D00083E081870895FC01A081B18118968C91F4
:1009E00018978B7F18968C93A081B1811A968C9161
:1009F0001A9780641A968C9381E0878B168A0895E3
:100A0000CF93DF93FC01A081B18118968C91189748
:100A1000846018968C938489883008F5EF010190E2
:100A2000F081E02D84859C89FE01E90FF11D84830E
:100A3000EA81FB8109958C898F5F8C8B888D882357
:100A400049F0E881F98182E0818786E08F8B1E8AF8
:100A5000188E0DC0E881F98183E0818708C0A081EC
:100A6000B18186E019968C9382E0878B168ADF919C
:100A7000CF910895FC018589882371F0A081B1810F
:100A80001A968C911A9784FF07C082E019968C936E
:100A900081E0878B168A08958589883098F4858946
:100AA000DF01A80FB11D1C968C91A081B1811C960D
:100AB0008C9385898F5F858B0190F081E02D83E099
:100AC00081870895A081B18182E019968C93878BEC
:100AD000168A0895DC01ED91FC91228521FF03C067
:100AE0000E943A0508950E9400050895FC01A08126
:100AF000B1811A968C9182FF06C0148A158A84E00F
:100B0000878B168A089583FF06C0148A158A83E0AE
:100B1000878B168A0895282F2074982F917491340A
:100B200021F4CF010E94CA040895222321F0CF01AD
:100B30000E94EB040895882324F4CF010E946A05E3
:100B4000089585E0878B168A08956F3F71058105AA
:100B5000910509F040F4FB01E158FE4D408360E04F
:100B600070E0CB01089561E070E080E090E00895CE
:100B70006F3F71058105910509F0A0F4E091022015
:100B8000F091032045E051E0E49F9001E59F300D96
:100B9000F49F300D112426583F4DF901E60FF71F41
:100BA0008081089580E0089581E040910220509175
:100BB00003206091042070910520452B462B472B84
:100BC00009F080E0EFE7F1E290E025E031E0829F7C
:100BD000D001839FB00D929FB00D1124A658BF4D38
:100BE00024E832E281918D93E217F307D9F7F89464
:100BF00081E090E0A0E0B0E040910220509103201D
:100C00006091042070910520452B462B472B19F04D
:100C100080E090E0DC018093022090930320A09379
:100C20000420B0930520789460E070E0CB01089533
:100C3000EFE7F1E284E892E21192E817F907E1F7B1
:100C4000EFE7F1E280E28083118212821382148244
:100C500015828BE4809383228AEE8093822282E144
:100C60008093812285E4809380228FEF80937F227E
:100C70000E94D4050895E0E0F6E0818181608183DF
:0C0C800085818E6F85830895F894FFCF66
:00000001FF
